:100000002A0D0400000000000000000000000000B5
:1000100000000000000000000000000000000000E0
:1000200000000000000000000000000000000000D0
:1000300000000000000000000000000000000000C0
:1000400000000000000000000000000000000000B0
:101A54004F872000F07F220020A0B7001020200034
:101A640032A0B700400020004420B7000200FA0072
:101A7400120E0200000000001C0E02000000000014
:101A84008A1F78008B1F78008C1F7800213A800011
:101A9400F08F2F000080600044A7B700A9FF070063
:101AA400D0FF070047FF07007CC0B3001BC9B30089
:101AB400CAC1B300B4FF07000080FB0000438800E4
:101AC400DEFF07000000E2004F003200D5FF0700F0
:101AD400E0428800010320000100E10039003A00DF
:101AE4000020EF00A04288000020EF00004388009F
:101AF400FA82200022FF0700DA00200015FE07000A
:101B0400AA00200013FE0700A04280006300E10049
:101B140026003100C9FF07000000E2002200320065
:101B2400A0428000C100DD0060852000010040006B
:101B340000079800BBFF07008E0090008008780023
:101B44001100200040852000108840000900370063
:101B54000A8420000AFF07000F0037006A82200071
:101B640007FF07000C003700CA81200004FF0700AC
:101B740009003700A04280006100E100F4FF320058
:101B8400A04280006200E100F4FF3200A042800025
:101B94006300E100F4FF3200DA002000EDFD0700ED
:101BA400AA002000EBFD0700D7FF3700DC428000CD
:101BB400CB428000BA42800073FF07000080FB0024
:101BC4000043880011032000C08520001008E100B4
:101BD40001003A002FFF070021032000C0852000E8
:101BE4001008E10002003A002A00200017FF070055
:101BF40031032000C08520001008E10002003A00F3
:101C04003A00200011FF0700ADFF37004F067800AF
:101C1400CF0578004F0578000080FA00FFFF3700F9
:101948008A1F78008B1F7800F0FF2F00C8A2B7000D
:10195800CA22EF001620EF001A00200062FE0700DE
:1019680058002000B71A21000E20ED00FEFF3A00B3
:101978001020ED00FCFF3A00CF0578004F057800F5
:041988000000060055
:1012F0000000FA008095200090428800000720003E
:1013000040A3B700CA50DD000034200010887000F0
:1013100001002E002034200001886500F0F3210038
:1013200044A3B7005023EF004E23EF0041E3A80091
:081330000080FA000000060035
:1019E8008A1F78008B1F7800F0C2A900F2C2A900F4
:1019F8000A6A28001B002000E1FD0700980020006B
:101A0800773522000E20ED00FEFF3A001020ED0091
:101A1800FCFF3A00CF0578004F057800000006006B
:101188000400FA00DEFF0700ECFF0700421F200002
:1011980003002000F1FF07000001BE00829FBE008F
:1011A8008A9FBE000200BE00026829008309200051
:1011B8000002EB009BFF07004F05BE004F01BE0079
:1011C80000079800110798000200BE000A01BE003F
:1011D8000002EB0093FF07000001BE00600047001B
:1011E80030015100A081590061005100E080590090
:1011F8002010880007E2A800B3FF07000822EF00CC
:10120800B8FF0700D0FF07000080FA0000000600C2
:101108000000FA00A024200040438800E0202000CE
:1011180050438800F0FF2F0070438800802A200089
:1011280080438800602D20009043880040292000DB
:0C113800604388000080FA000000060000
:0C11440000D02700010020000000060081
:1010D00098002000773522000E20ED00FEFF3A0038
:0C10E0001020ED00FCFF3A0000000600AC
:1010EC000000FA00E8FC07000000E20001003A00F2
:0C10FC00FCFF37000080FA000000060036
:100494000000FA000260EF000602AF000260EC0008
:1004A4000060EF000642AF000060EC008180FB00BA
:1004B4000080FB00808070000060EF000662AF00E7
:1004C4000060EC000080FB00808070000060EF00A2
:1004D4000682AF000060EC000080FB0080807000AA
:1004E4000060EF000622AF000060EC000080FB001B
:1004F400808070000060EF0009C2AF000060EC0073
:100504000080FB00008070000000E2000060EF004B
:1005140001003A000060EC000080FB000080FA005B
:0405240000000600CD
:10115000570020000E20ED00FEFF3A0000000000C6
:041160000000060085
:101164000000FA00020AB800500088000200B8002B
:1011740081004200032AB800810042000080FA0086
:041184000000060061
:10102C000000FA0002000700640804000000000041
:10103C000800E20002003A00100007000000060061
:10104C00839F68000200E20002003D006000100077
:10105C00E08018000600E20002003D006001110073
:10106C00E0811900050007004F00E00002003B0082
:10107C0060001000E0801800000006006022B8003C
:10108C00060220000000D0008180D2000482D20031
:10109C008582D2000000A8000202520083825A000E
:1010AC0003003B000202420083824A000000A100C0
:1010BC000603E900F3FF3A00000006000080FA0086
:0410CC00000006001A
:1017C8008A1F78008B1F78008C1F78008D1F780087
:1017D800D822A800D842A900DAFF0700CCC1B3007C
:1017E8001BC0B3008AC1B300CFFF07003CC0B300E1
:1017F8001620EF007AC1B300CBFF07001AFB0700E1
:101808001A20EF001820EF000A202C001B002000EF
:1018180010002000801F7800E3FE07002F00B100B1
:10182800FDFF2F000CD22000CB9A20004AD12000C7
:10183800D6FE0700CF0678004F067800CF0578005F
:081848004F05780000000600C6
:10174C000000FA00217420006204200073052000C0
:10175C00824878008348780042C7A9000080FA00CC
:04176C000000060073
:101730000000FA008D1F78001A20EF00B8FB0700A8
:0C174000CF0678000080FA0000000600D0
:100620000200FA00F00F200000079800605CE10073
:10063000AB003A001A00E200010032004304070058
:1006400063003700006C20000C487800A1003700E0
:10065000106C20000C4878009E003700206C2000B1
:100660000C4878009B003700306C20000C48780064
:1006700098003700406C20000C4878009500370047
:10068000506C20000C48780092003700606C20000D
:100690000C4878008F003700706C20000C48780000
:1006A0008C003700806C20000C48780089003700EF
:1006B000906C20000C48780086003700A06C200069
:1006C0000C48780083003700B06C20000C4878009C
:1006D00080003700C06C20000C4878007D00370097
:1006E000D06C20000C4878007A003700E06C2000C5
:1006F0000C48780077003700F06C20000C48780038
:1007000074003700006D20000C487800710037003D
:10071000106D20000C4878006E003700206D20001E
:100720000C4878006B003700306D20000C487800D2
:1007300068003700406D20000C48780065003700E5
:10074000506D20000C48780062003700606D20007A
:100750000C4878005F003700706D20000C4878006E
:100760005C003700806D20000C487800590037008D
:10077000906D20000C48780056003700A06D2000D6
:100780000C48780053003700B06D20000C4878000A
:1007900050003700C06D20000C4878004D00370035
:1007A000D06D20000C4878004A003700E06D200032
:1007B0000C48780047003700F06D20000C487800A6
:1007C000440037000020EF00000798004100370088
:1007D0006054E1009BFF32006154E1009CFF320055
:1007E0006254E1009DFF32006354E1009EFF32003D
:1007F0006454E1009FFF32006554E100A0FF320025
:100800006654E100A1FF32006754E100A2FF32000C
:100810006854E100A3FF32006954E100A4FF3200F4
:100820006A54E100A5FF32006B54E100A6FF3200DC
:100830006C54E100A7FF32006D54E100A8FF3200C4
:100840006E54E100A9FF32006F54E100AAFF3200AC
:100850007054E100ABFF32007154E100ACFF320094
:100860007254E100ADFF32007354E100AEFF32007C
:100870007454E100AFFF32007554E100B0FF320064
:100880007654E100B1FF32007754E100B2FF32004C
:100890007854E100B3FF32007954E100B4FF320034
:1008A0007A54E100B5FF32007B54E100B6FF32001C
:1008B0007C54E100B7FF32007D54E100B8FF320004
:1008C0007E54E100B9FF32007F54E100BAFF3200EC
:1008D000BCFF37001A00E20001003200E4FE07000E
:1008E000615CE100BD003A001A00E2000100320044
:1008F000960307006C003700C06B20000A487800A0
:10090000B3003700E06B20000A487800B0003700E1
:10091000D06B20000A487800AD0037001068200036
:100920000A487800AA003700206820000A487800AA
:10093000A7003700306820000A487800A40037007C
:10094000406820000A487800A1003700E0682000D5
:100950000A4878009E003700F06820000A487800B6
:100960009B003700006920000A4878009800370093
:10097000106920000A48780095003700206920009F
:100980000A48780092003700306920000A48780051
:100990008F003700406920000A4878008C0037003B
:1009A000606920000A4878008900370070692000DB
:1009B0000A48780086003700906A20000A487800CC
:1009C00083003700806A20000A48780080003700E2
:1009D000A06A20000A4878007D003700D06A200015
:1009E0000A4878007A003700C06A20000A48780078
:1009F00077003700E06A20000A487800740037006A
:100A0000F06A20000A487800710037006068200012
:100A10000A4878006E003700706820000A487800A5
:100A20006B003700806820000A48780068003700B3
:100A3000906820000A48780065003700506A20005E
:100A40000A48780062003700406A20000A487800AF
:100A50005F003700706A20000A4878005C003700A9
:100A6000606A20000A48780059003700B06A200008
:100A70000A48780056003700306A20000A4878009B
:100A800053003700706B20000A4878005000370090
:100A9000606B20000A4878004D0037000020EF000E
:100AA000000798004A0037006064E10092FF3200BE
:100AB0006164E10093FF32006264E10094FF320060
:100AC0006364E10095FF32006464E10096FF320048
:100AD0006564E10097FF32006664E10098FF320030
:100AE0006764E10099FF32006864E1009AFF320018
:100AF0006964E1009BFF32006A64E1009CFF320000
:100B00006B64E1009DFF32006C64E1009EFF3200E7
:100B10006D64E1009FFF32006E64E100A0FF3200CF
:100B20006F64E100A1FF32007064E100A2FF3200B7
:100B30007164E100A3FF32007264E100A4FF32009F
:100B40007364E100A5FF32007464E100A6FF320087
:100B50007564E100A7FF32007664E100A8FF32006F
:100B60007764E100A9FF32007864E100AAFF320057
:100B70007964E100ABFF32007A64E100ACFF32003F
:100B80007B64E100ADFF32007C64E100AEFF320027
:100B90007D64E100AFFF32007E64E100B0FF32000F
:100BA0007F64E100B1FF320000C2B3000064E100E5
:100BB000B1FF320010C2B3000064E100B1FF3200A7
:100BC00020C2B3000064E100B1FF3200B3FF370080
:100BD0001A00E2000100320025FE070094003700F1
:100BE0001600AE00C802A9001600AF00C802A80097
:100BF000CA0037001600AE00C822A9001600AF00D8
:100C0000C822A800C50037001600AE00D902A9000E
:100C10001600AF00D902A800C00037001600AE00D1
:100C2000D942A9001600AF00D942A800BB00370086
:100C30001600AE00D922A9001600AF00D922A800E4
:100C4000B60037001600AE00C8C2A9001600AF00FB
:100C5000C8C2A800B10037001600AE00C8E2A90063
:100C60001600AF00C8E2A800AC0037001600AE00C6
:100C7000C902A9001600AF00C902A800A7003700EA
:100C80001600AE00C922A9001600AF00C922A800B4
:100C9000A20037001600AE00E882A9001600AF00DF
:100CA000E882A8009D0037001600AE00D802A90017
:100CB0001600AF00D802A800980037001600AE005A
:100CC000D962A9001600AF00D962A80093003700CE
:100CD0001600AE00C842A9001600AF00C842A80026
:100CE0008E0037001600AE00C9C2A9001600AF0082
:100CF000C9C2A800890037001600AE00E862A9004A
:100D00001600AF00E862A800840037001600AE00AD
:100D1000E8A2A9001600AF00E8A2A8007F003700F3
:100D20001600AE00C8A2A9001600AF00C8A2A80015
:100D30007A0037001600AE00F102A9001600AF00DD
:100D4000F102A800750037001600AE00D8A2A90075
:100D50001600AF00D8A2A800700037001600AE0041
:100D6000F0C2A9001600AF00F0C2A8006B00370067
:100D70001600AE00D862A9001600AF00D862A80025
:100D8000660037001600AE00D842A9001600AF007A
:100D9000D842A800610037001600AE00D822A90092
:100DA0001600AF00D822A8005C0037001600AE0085
:100DB000D882A9001600AF00D882A80057003700DB
:100DC0001600AE00F0C2A9001600AF00F0C2A800E5
:100DD000520037001600AE00F122A9001600AF0045
:100DE000F122A8004D0037001600AE00C882A9000D
:100DF0001600AF00C882A800480037001600AE00F9
:100E0000C9E2A9001600AF00C9E2A80043003700FC
:100E10001600AE00E842A9001600AF00E842A800A4
:100E20003E0037000020EF00000798003B0037002D
:100E30006054E1006AFF32006154E1006DFF32004E
:100E40006254E10070FF32006354E10073FF32002E
:100E50006454E10076FF32006654E10079FF32000D
:100E60006754E1007CFF32006854E1007FFF3200EC
:100E70006954E10082FF32006A54E10085FF3200CC
:100E80006B54E10088FF32006C54E1008BFF3200AC
:100E90006D54E1008EFF32006E54E10091FF32008C
:100EA0007054E10094FF32007154E10097FF32006A
:100EB0007254E1009AFF32007354E1009DFF32004A
:100EC0007454E100A0FF32007554E100A3FF32002A
:100ED0007654E100A6FF32007754E100A9FF32000A
:100EE0007854E100ACFF32007954E100AFFF3200EA
:100EF0007A54E100B2FF32007B54E100B5FF3200CA
:100F00007C54E100B8FF32007D54E100BBFF3200A9
:100F10007E54E100BEFF3200C2FF37000E00900099
:080F20000080FA000000060049
:100470000000FA00217420006204200073052000AF
:10048000824878008348780042C7A8000080FA00BC
:040490000000060062
:1013B0000C00FA00CEB89700C09A20006042880066
:1013C00040D120007042880000D220008042880076
:1013D000F0FF2F00504288002022EF00000028007C
:1013E00022A2B7006008E1002F003A002062A900A5
:1013F00054FF0700823E20000300200059FF070031
:10140000000798001107980006FF07004100DE0062
:10141000640040000A01BE000000E900030035003E
:101420000201D0008381D200FBFF37002207980021
:10143000330798008C9FBE000E0090009E00900025
:101440000002EB00CBFE0700400798005107980010
:101450002E019000BE0190000E0090009E009000B2
:101460000002EB00F1FE07004F06BE0000079800E7
:1014700011079800640047005001D100C080D300DC
:10148000680047003008E1002090E10005003100CD
:101490008E0090001E01900060004700619840009F
:1014A00060104900930037006108E1002F003A0006
:1014B00024FF0700823E20000300200029FF0700D0
:1014C0000007980011079800D6FE07004100DE00D3
:1014D00000A0EC000A01BE000000E9000300350096
:1014E0000201D0008381D200FBFF37002207980061
:1014F000330798008C9FBE000E0090009E00900065
:101500000002EB009BFE070040079800510798007F
:101510002E019000BE0190000E0090009E009000F1
:101520000002EB00C1FE07004F06BE000007980056
:1015300011079800640047005001D100C080D3001B
:10154000680047003008E1002090E100050031000C
:101550008E0090001E0190006000470061984000DE
:10156000601049002062A800620037002062A900D4
:10157000F4FE0700823E200003002000F9FE070071
:101580000007980011079800A6FE07004100DE0042
:10159000640040000A01BE000000E90003003500BD
:1015A0000201D0008381D200FBFF370022079800A0
:1015B000330798008C9FBE008A9FBE000E009000EB
:1015C0009E0090000002EB006AFE070040079800B2
:1015D000510798002E019000BE0190000E0090006F
:1015E0009E0090000002EB0090FE07004F05BE0039
:1015F0004F06BE00000798001107980064004700DE
:101600005001D100C080D300680047003008E100DD
:101610002090E100050031008E0090001E01900036
:10162000600047006198400060104900E0004700FA
:1016300031007800210070002E003A00C1FE070042
:10164000823E200003002000C6FE0700000798002D
:101650001107980073FE07004100DE0000A0EC00B7
:101660000A01BE000000E900030035000201D000BD
:101670008381D200FBFF37002207980033079800D0
:101680008C9FBE000E0090009E0090000002EB00B8
:1016900038FE070040079800510798002E0190007F
:1016A000BE0190000E0090009E0090000002EB0032
:1016B0005EFE07004F06BE00000798001107980065
:1016C000640047005001D100C080D300680047008B
:1016D0003008E1002090E100050031008E0090000C
:1016E0001E019000600047006198400060104900B2
:1016F0002062A8000E0090009E0090006100500043
:10170000E0805800401188002222A9008D00760058
:10171000002220001088700021E2A8002342A800C7
:101720006BFE07006AFE07000080FA00000006005A
:0810240020002000000006007E
:100F74000000FA00020007000E0804000000000050
:100F84000800E20002003A0010000700000006001A
:100F9400811F78000200E20002003D0060001000A2
:100FA400E08018000600E20002003D00600111002C
:100FB400E0811900050007004F00E00002003B003B
:100FC40060001000E0801800000006000200070026
:100FD4000480BE00000006006022B8000602200063
:100FE4000000D0008180D2000482D2008582D20029
:100FF4000000A8000202520083825A0003003B0052
:101004000202420083824A000000A1000603E900B4
:10101400F3FF3A00000006000080FA00000006001A
:101394000000FA007A4288006B4288008C42880080
:0C13A4005D4288000080FA000000060096
:10198C008A1F78008B1F780076FF07006104E10046
:10199C000E003A0074FE07008B1F78008A45780011
:1019AC000AC1B30009FB0700CF0578001AC1B300C8
:1019BC0006FB07008C4578002AC1B30003FB070027
:1019CC005AFE070010C0B300010037000020EF00E2
:0C19DC00CF0578004F05780000000600E1
:101770008A1F78001420EF00EBFD07004F0578006A
:04178000000006005F
:100F28008A1F780003C9B30014C9B30039FD07004C
:100F38008A1F7800034578009AFD07004F0578005E
:100F480098FD070033FD07000445780095FD07006C
:100F58001A0020007CFD07008040780070FD070023
:0C0F6800014078004F05780000000600F2
:10041C000000FA000420EF00007122000010E1003F
:10042C0006003E00180007000000E2000100320048
:10043C00020037000420EC00F7FF37001071220097
:10044C000010E10002003900F00F2000030037001B
:10045C000602A800E7FF07000020EF000080FA006A
:04046C000000060086
:100400000000FA008620AF0001003700FDFF370032
:0C0410008620A9000080FA000000060011
:1005AC000000FA000A80FB0002A2B70008E2AE00CD
:1005BC000200370010002000020037008DFF0700FA
:0C05CC000020EF000080FA000000060094
:100550000000FA000682BF007F0060000000E20099
:1005600001003200FBFF37000662A800A4FF07006D
:100570000682BF007F0060000000E2000100320040
:10058000FBFF37001400E2000200320006A2A800C0
:100590000100370006A2A9000682A80098FF070004
:0C05A00000C2BF000080FA00000006004E
:100528000000FA000682BF007F0060000000E200C1
:1005380001003200FBFF37000642A800AEFF0700AB
:080548000080FA00000006002B
:101374008A1F78008B1F78001620EF001AC0B30074
:1013840094FC0700CF0578004F05780000000600A4
:1005D8008A1F780003C9B3008EFF07008A1F7800BE
:1005E80003457800EFFF07004F057800EDFF07008F
:1005F8000B457800EBFF0700C9FF0700A710200094
:100608000E20ED00FEFF3A00000000000000000090
:080618004F0578000000060008
:101338008A1F78008B1F78001BC0B3001AC0B30047
:10134800A3FC0700CF0578004F05780000000600D1
:101A40000000FA002282BF00610060000080FA00FE
:041A5000000006008C
:101A28000000FA0000000000000000002682BF004D
:081A38000080FA000000060026
:101784000000FA000220EF001A4078006004E10033
:101794000A0032008A1F78000085FB00EDFE070076
:1017A4004F05780061C04000804078000080FB0055
:1017B4000000450010407800F4FF37000080FA0074
:0417C400000006001B
:101358000000FA002302AF0001003700FDFF37004C
:0C1368002A1188000080FA000000060036
:101898008A1F78008B1F7800004380006100E100F8
:1018A80024003A00FA802000B4FF07001420EF005B
:1018B8009BFD07002B8620000045780054FE07009A
:1018C8002A862000ADFF07005A812000ABFF0700E1
:1018D8000AC1B30092FD07002B862000004578005E
:1018E8004BFE07002A862000A4FF07008A802000FC
:1018F800A2FF07001AC1B30089FD07002B8620004C
:101908000045780042FE07002A8620009BFF07005A
:101918000A80200099FF07002AC1B30080FD070054
:101928002B8620000045780039FE07002A86200013
:1019380092FF0700CF0578004F05780000000600E9
:101218000200FA000420EF006314E1000600310028
:101228000280FB008080450000C2B300804878003F
:101238000460EC00F8FF37000280FB008080450066
:101248000020EF0080487800E14151000380FB0056
:1012580000804500000798000A80FB00A2002000DB
:10126800110009000280D80000032000808040009F
:101278000E009000014878000A80FB00A2002000C0
:10128800110009000280D800004578006004E100E0
:1012980001003A00020037000660ED00EBFF37005E
:0812A8000080FA0000000600BE
:101850008A1F780096FE0700F0428800F2CFB3009E
:1018600061862000824860004801DE00F1CFB300AD
:101870007086200001486100608620001085FB0012
:10188000B5FE0700708620001085FB00B2FE070041
:081890004F057800000006007E
:1012B0000000FA006F50E10004003E001000200022
:1012C0008A00DD00204E2000108870004A1A880035
:1012D0004023A8004003AF0001003700FDFF3700A6
:1012E0004003A9000083BF000080FA000000060050
:101C24000A8020000B002000390009000B1D7800F9
:041C340000000600A6
:101C3800018020000000280023000900B018780067
:081C4800B0587800000006000E
:020000040001F9
:100000004D4F000044450000434E00003A00000000
:1000100052450000464300004E3A000000530000E5
:1000200054410000543A00000054000049410000CF
:08003000434E00003A000000FD
:100038004D4F000044450000434E0000204F000093
:040048004B00000069
:10004C0052450000464300004E2000004F4B00007C
:10005C0000530000656E000064200000546800002E
:10006C007265000065200000427900007465000094
:04007C00730000000D
:1000800054490000414300004E2000004F4B000047
:04009000000000006C
:020000040002F8
:10AFF0003FFE00007FEE000097F900009F3B00003D
:00000001FF
